{
  "contractName": "Betting",
  "abi": [
    {
      "constant": true,
      "inputs": [],
      "name": "name",
      "outputs": [
        {
          "name": "",
          "type": "string"
        }
      ],
      "payable": false,
      "stateMutability": "view",
      "type": "function"
    },
    {
      "constant": true,
      "inputs": [
        {
          "name": "",
          "type": "uint256"
        }
      ],
      "name": "games",
      "outputs": [
        {
          "name": "totalBetsHome",
          "type": "uint256"
        },
        {
          "name": "totalBetsAway",
          "type": "uint256"
        },
        {
          "name": "takenPlace",
          "type": "bool"
        }
      ],
      "payable": false,
      "stateMutability": "view",
      "type": "function"
    },
    {
      "constant": true,
      "inputs": [],
      "name": "owner",
      "outputs": [
        {
          "name": "",
          "type": "address"
        }
      ],
      "payable": false,
      "stateMutability": "view",
      "type": "function"
    },
    {
      "constant": true,
      "inputs": [],
      "name": "minimumBet",
      "outputs": [
        {
          "name": "",
          "type": "uint256"
        }
      ],
      "payable": false,
      "stateMutability": "view",
      "type": "function"
    },
    {
      "inputs": [],
      "payable": false,
      "stateMutability": "nonpayable",
      "type": "constructor"
    },
    {
      "constant": false,
      "inputs": [
        {
          "name": "_new_game_ids",
          "type": "uint256[]"
        }
      ],
      "name": "populateGames",
      "outputs": [],
      "payable": false,
      "stateMutability": "nonpayable",
      "type": "function"
    },
    {
      "constant": true,
      "inputs": [
        {
          "name": "_player",
          "type": "address"
        },
        {
          "name": "_gameID",
          "type": "uint256"
        }
      ],
      "name": "checkPlayerExists",
      "outputs": [
        {
          "name": "",
          "type": "bool"
        }
      ],
      "payable": false,
      "stateMutability": "view",
      "type": "function"
    },
    {
      "constant": false,
      "inputs": [
        {
          "name": "_teamSelected",
          "type": "uint8"
        },
        {
          "name": "_gameID",
          "type": "uint256"
        }
      ],
      "name": "bet",
      "outputs": [],
      "payable": true,
      "stateMutability": "payable",
      "type": "function"
    },
    {
      "constant": false,
      "inputs": [
        {
          "name": "_teamWinner",
          "type": "uint16"
        },
        {
          "name": "_gameID",
          "type": "uint256"
        }
      ],
      "name": "distributePrizes",
      "outputs": [],
      "payable": false,
      "stateMutability": "nonpayable",
      "type": "function"
    },
    {
      "constant": true,
      "inputs": [
        {
          "name": "_gameID",
          "type": "uint256"
        }
      ],
      "name": "AmountHome",
      "outputs": [
        {
          "name": "",
          "type": "uint256"
        }
      ],
      "payable": false,
      "stateMutability": "view",
      "type": "function"
    },
    {
      "constant": true,
      "inputs": [
        {
          "name": "_gameID",
          "type": "uint256"
        }
      ],
      "name": "AmountAway",
      "outputs": [
        {
          "name": "",
          "type": "uint256"
        }
      ],
      "payable": false,
      "stateMutability": "view",
      "type": "function"
    }
  ],
  "bytecode": "0x6080604052606060405190810160405280602381526020017f5065657220746f2050656572204261736b657462616c6c2042657474696e672081526020017f4170700000000000000000000000000000000000000000000000000000000000815250600090805190602001906100769291906100d7565b5034801561008357600080fd5b50655af3107a400060028190555033600160006101000a81548173ffffffffffffffffffffffffffffffffffffffff021916908373ffffffffffffffffffffffffffffffffffffffff16021790555061017c565b828054600181600116156101000203166002900490600052602060002090601f016020900481019282601f1061011857805160ff1916838001178555610146565b82800160010185558215610146579182015b8281111561014557825182559160200191906001019061012a565b5b5090506101539190610157565b5090565b61017991905b8082111561017557600081600090555060010161015d565b5090565b90565b610ec78061018b6000396000f3fe6080604052600436106100a4576000357c0100000000000000000000000000000000000000000000000000000000900463ffffffff16806306fdde03146100a9578063117a5b90146101395780637c6953841461019a5780638363b00c146101d55780638da5cb5b14610224578063a0caa0931461027b578063a1d5ada7146102ca578063adb416f11461033d578063c38a8afd14610402578063e44ae4d41461042d575b600080fd5b3480156100b557600080fd5b506100be610476565b6040518080602001828103825283818151815260200191508051906020019080838360005b838110156100fe5780820151818401526020810190506100e3565b50505050905090810190601f16801561012b5780820380516001836020036101000a031916815260200191505b509250505060405180910390f35b34801561014557600080fd5b506101726004803603602081101561015c57600080fd5b8101908080359060200190929190505050610514565b6040518084815260200183815260200182151515158152602001935050505060405180910390f35b6101d3600480360360408110156101b057600080fd5b81019080803560ff1690602001909291908035906020019092919050505061054b565b005b3480156101e157600080fd5b5061020e600480360360208110156101f857600080fd5b8101908080359060200190929190505050610703565b6040518082815260200191505060405180910390f35b34801561023057600080fd5b50610239610723565b604051808273ffffffffffffffffffffffffffffffffffffffff1673ffffffffffffffffffffffffffffffffffffffff16815260200191505060405180910390f35b34801561028757600080fd5b506102b46004803603602081101561029e57600080fd5b8101908080359060200190929190505050610749565b6040518082815260200191505060405180910390f35b3480156102d657600080fd5b50610323600480360360408110156102ed57600080fd5b81019080803573ffffffffffffffffffffffffffffffffffffffff16906020019092919080359060200190929190505050610769565b604051808215151515815260200191505060405180910390f35b34801561034957600080fd5b506104006004803603602081101561036057600080fd5b810190808035906020019064010000000081111561037d57600080fd5b82018360208201111561038f57600080fd5b803590602001918460208302840111640100000000831117156103b157600080fd5b919080806020026020016040519081016040528093929190818152602001838360200280828437600081840152601f19601f820116905080830192505050505050509192919290505050610836565b005b34801561040e57600080fd5b5061041761092b565b6040518082815260200191505060405180910390f35b34801561043957600080fd5b506104746004803603604081101561045057600080fd5b81019080803561ffff16906020019092919080359060200190929190505050610931565b005b60008054600181600116156101000203166002900480601f01602080910402602001604051908101604052809291908181526020018280546001816001161561010002031660029004801561050c5780601f106104e15761010080835404028352916020019161050c565b820191906000526020600020905b8154815290600101906020018083116104ef57829003601f168201915b505050505081565b60036020528060005260406000206000915090508060000154908060010154908060020160009054906101000a900460ff16905083565b6105553382610769565b15151561056157600080fd5b600254341015151561057257600080fd5b346003600083815260200190815260200160002060040160003373ffffffffffffffffffffffffffffffffffffffff1673ffffffffffffffffffffffffffffffffffffffff168152602001908152602001600020600001819055508160ff166003600083815260200190815260200160002060040160003373ffffffffffffffffffffffffffffffffffffffff1673ffffffffffffffffffffffffffffffffffffffff16815260200190815260200160002060010181905550600360008281526020019081526020016000206003013390806001815401808255809150509060018203906000526020600020016000909192909190916101000a81548173ffffffffffffffffffffffffffffffffffffffff021916908373ffffffffffffffffffffffffffffffffffffffff1602179055505060018260ff1614156106da573460036000838152602001908152602001600020600001600082825401925050819055506106ff565b3460036000838152602001908152602001600020600101600082825401925050819055505b5050565b600060036000838152602001908152602001600020600001549050919050565b600160009054906101000a900473ffffffffffffffffffffffffffffffffffffffff1681565b600060036000838152602001908152602001600020600101549050919050565b600080600090505b600360008481526020019081526020016000206003018054905081101561082a578373ffffffffffffffffffffffffffffffffffffffff1660036000858152602001908152602001600020600301828154811015156107cc57fe5b9060005260206000200160009054906101000a900473ffffffffffffffffffffffffffffffffffffffff1673ffffffffffffffffffffffffffffffffffffffff16141561081d576001915050610830565b8080600101915050610771565b50600090505b92915050565b60008090505b815181101561092757608060405190810160405280600081526020016000815260200160001515815260200160006040519080825280602002602001820160405280156108985781602001602082028038833980820191505090505b508152506003600084848151811015156108ae57fe5b906020019060200201518152602001908152602001600020600082015181600001556020820151816001015560408201518160020160006101000a81548160ff0219169083151502179055506060820151816003019080519060200190610916929190610da9565b50905050808060010191505061083c565b5050565b60025481565b600160009054906101000a900473ffffffffffffffffffffffffffffffffffffffff1673ffffffffffffffffffffffffffffffffffffffff163373ffffffffffffffffffffffffffffffffffffffff161415156109f6576040517f08c379a00000000000000000000000000000000000000000000000000000000081526004018080602001828103825260188152602001807f63616c6c6572206d75737420626520746865206f776e6572000000000000000081525060200191505060405180910390fd5b6109fe610e33565b60008090506000809050600080905060008060036000888152602001908152602001600020600001549050600060036000898152602001908152602001600020600101549050600082148015610a545750600081145b1515610d6f576000821415610a6c5760029850610a7b565b6000811415610a7a57600198505b5b60008090505b600360008a815260200190815260200160002060030180549050811015610bb4576000600360008b815260200190815260200160002060030182815481101515610ac757fe5b9060005260206000200160009054906101000a900473ffffffffffffffffffffffffffffffffffffffff1690508a61ffff16600360008c815260200190815260200160002060040160008373ffffffffffffffffffffffffffffffffffffffff1673ffffffffffffffffffffffffffffffffffffffff168152602001908152602001600020600101541415610ba6578089896103e881101515610b6657fe5b602002019073ffffffffffffffffffffffffffffffffffffffff16908173ffffffffffffffffffffffffffffffffffffffff168152505087806001019850505b508080600101915050610a81565b5060018961ffff161415610bf9576003600089815260200190815260200160002060010154945060036000898152602001908152602001600020600001549350610c2c565b60036000898152602001908152602001600020600001549450600360008981526020019081526020016000206001015493505b60008090505b86811015610d6d57600073ffffffffffffffffffffffffffffffffffffffff1688826103e881101515610c6157fe5b602002015173ffffffffffffffffffffffffffffffffffffffff16141515610d605787816103e881101515610c9257fe5b602002015193506000600360008b815260200190815260200160002060040160008673ffffffffffffffffffffffffffffffffffffffff1673ffffffffffffffffffffffffffffffffffffffff16815260200190815260200160002060000154905088826103e881101515610d0357fe5b602002015173ffffffffffffffffffffffffffffffffffffffff166108fc8789811515610d2c57fe5b0460010183029081150290604051600060405180830381858888f19350505050158015610d5d573d6000803e3d6000fd5b50505b8080600101915050610c32565b505b6001600360008a815260200190815260200160002060020160006101000a81548160ff021916908315150217905550505050505050505050565b828054828255906000526020600020908101928215610e22579160200282015b82811115610e215782518260006101000a81548173ffffffffffffffffffffffffffffffffffffffff021916908373ffffffffffffffffffffffffffffffffffffffff16021790555091602001919060010190610dc9565b5b509050610e2f9190610e58565b5090565b617d00604051908101604052806103e890602082028038833980820191505090505090565b610e9891905b80821115610e9457600081816101000a81549073ffffffffffffffffffffffffffffffffffffffff021916905550600101610e5e565b5090565b9056fea165627a7a72305820da5c09dde917ce6e110f8d675d8d16cf177405197395b6d58087e2aaa9ab25520029",
  "source": "// SPDX-License-Identifier: MIT\r\npragma solidity =0.5.0;\r\n\r\ncontract Betting {\r\n    string public name = \"Peer to Peer Basketball Betting App\";\r\n    address public owner;\r\n    uint256 public minimumBet;\r\n\r\n    struct Player {\r\n        // Amount bet by a player\r\n        uint256 amountBet;\r\n        // Team selected by the player (1 for home, 2 for away)\r\n        uint256 teamSelected;\r\n    }\r\n\r\n    struct Game {\r\n        // Total amount of bets placed on the home team\r\n        uint256 totalBetsHome;\r\n        // Total amount of bets placed on the away team\r\n        uint256 totalBetsAway;\r\n        // Has the game taken place yet?\r\n        bool takenPlace;\r\n        // List of payable addresses for the players\r\n        address payable[] players;\r\n        // Maps addresses to player information so that given an address, we can check how much money that player bet on a certain team\r\n        mapping(address => Player) playerInfo;\r\n    }\r\n\r\n    // Mapping of games\r\n    mapping(uint256 => Game) public games;\r\n\r\n    constructor() public {\r\n        // minimumBet is 1e14 wei corresponding to 0.0001 ether\r\n        minimumBet = 1e14;\r\n        owner = msg.sender;\r\n    }\r\n\r\n    function populateGames(uint256[] memory _new_game_ids) public {\r\n        for (uint256 i = 0; i < _new_game_ids.length; i++) {\r\n            // Leave playerInfo and players attributes empty by not including them in Game constructor\r\n            games[_new_game_ids[i]] = Game({\r\n                totalBetsHome: 0,\r\n                totalBetsAway: 0,\r\n                takenPlace: false,\r\n                players: new address payable[](0)\r\n            });\r\n        }\r\n    }\r\n\r\n    function checkPlayerExists(address _player, uint256 _gameID)\r\n        public\r\n        view\r\n        returns (bool)\r\n    {\r\n        for (uint256 i = 0; i < games[_gameID].players.length; i++) {\r\n            if (games[_gameID].players[i] == _player) {\r\n                return true;\r\n            }\r\n        }\r\n        return false;\r\n    }\r\n\r\n    function bet(uint8 _teamSelected, uint256 _gameID) public payable {\r\n        // Check that the player (person calling this contract) does not exist (meaning that person hasn't bet yet)\r\n        require(!checkPlayerExists(msg.sender, _gameID));\r\n\r\n        require(msg.value >= minimumBet);\r\n\r\n        games[_gameID].playerInfo[msg.sender].amountBet = msg.value;\r\n        games[_gameID].playerInfo[msg.sender].teamSelected = _teamSelected;\r\n\r\n        games[_gameID].players.push(msg.sender); // VERSIONING: need payable(msg.sender) for newer versions of solidity\r\n\r\n        // Bet on the home team, otherwise bet on the away team\r\n        if (_teamSelected == 1) {\r\n            games[_gameID].totalBetsHome += msg.value;\r\n        } else {\r\n            games[_gameID].totalBetsAway += msg.value;\r\n        }\r\n    }\r\n\r\n    function distributePrizes(uint16 _teamWinner, uint256 _gameID) public {\r\n        // Enforce only the deployer/owner of the contract can call this function\r\n        require(msg.sender == owner, \"caller must be the owner\");\r\n\r\n        // Create a temporary in memory array with fixed size of 1000 to store the winners, so there can be at most 1000 winners\r\n        address payable[1000] memory winners;\r\n\r\n        uint256 count = 0; // This is the count for the number of winners\r\n        uint256 LoserBet = 0; // This will be the sum of all the losing bets\r\n        uint256 WinnerBet = 0; // This will be the sum of all the winning bets\r\n        address add;\r\n        uint256 HomeAmount = games[_gameID].totalBetsHome;\r\n        uint256 AwayAmount = games[_gameID].totalBetsAway;\r\n\r\n        /*check if there actually are any bets on this game, if there are no bets, just skip all of this and set game as \"taken place\"\r\n        without needing to take any action */\r\n        if (!(HomeAmount == 0 && AwayAmount == 0)) {\r\n\r\n            if (HomeAmount == 0){\r\n                _teamWinner = 2;\r\n            }\r\n            else if (AwayAmount == 0){\r\n                _teamWinner = 1;\r\n            }\r\n            \r\n            // We loop through the player array to find the players that correctly bet on the winning team\r\n            for (uint256 i = 0; i < games[_gameID].players.length; i++) {\r\n                address payable playerAddress = games[_gameID].players[i];\r\n\r\n                // If the player bet on the winning team, we add that player's address to the winners array\r\n                if (\r\n                    games[_gameID].playerInfo[playerAddress].teamSelected ==\r\n                    _teamWinner\r\n                ) {\r\n                    winners[count] = playerAddress;\r\n                    count++;\r\n                }\r\n            }\r\n\r\n            // Define which bet sum is the winner and which is the loser\r\n            if (_teamWinner == 1) {\r\n                LoserBet = games[_gameID].totalBetsAway;\r\n                WinnerBet = games[_gameID].totalBetsHome;\r\n            } else {\r\n                LoserBet = games[_gameID].totalBetsHome;\r\n                WinnerBet = games[_gameID].totalBetsAway;\r\n            }\r\n\r\n            // Loop through the array of winners and distribute eth (in units of wei) to each of them\r\n            for (uint256 j = 0; j < count; j++) {\r\n                // Check that we actually have a proper, valid address in this slot of the array\r\n                if (winners[j] != address(0)) {\r\n                    add = winners[j];\r\n                    uint256 bet_amount = games[_gameID]\r\n                        .playerInfo[add]\r\n                        .amountBet;\r\n                    // Distribute wei to the user based on the formula (pro rata distribution to the winners based on how much money they individually bet)\r\n                    winners[j].transfer(\r\n                        bet_amount * (1 + LoserBet / WinnerBet)\r\n                    );\r\n                }\r\n            }\r\n        }\r\n\r\n        // Update game to have taken place\r\n        games[_gameID].takenPlace = true;\r\n\r\n        // delete playerInfo[playerAddress]; // Delete all the players\r\n        // players.length = 0; // Delete all the players array\r\n        // LoserBet = 0; // Reinitialize the bets\r\n        // WinnerBet = 0; // Reset these values\r\n        // totalBetsOne = 0; // Reset these values\r\n        // totalBetsTwo = 0; // Reset these values\r\n    }\r\n\r\n    function AmountHome(uint256 _gameID) public view returns (uint256) {\r\n        return games[_gameID].totalBetsHome;\r\n    }\r\n\r\n    function AmountAway(uint256 _gameID) public view returns (uint256) {\r\n        return games[_gameID].totalBetsAway;\r\n    }\r\n}\r\n",
  "sourcePath": "/mnt/c/Users/Jeremy Zhang/Documents/peer-sports-betting/contracts/Betting.sol",
  "compiler": {
    "name": "solc",
    "version": "0.5.0+commit.1d4f565a.Emscripten.clang"
  },
  "schemaVersion": "3.4.4",
  "updatedAt": "2022-01-09T19:36:42.713Z",
  "networkType": "ethereum",
  "devdoc": {
    "methods": {}
  },
  "userdoc": {
    "methods": {}
  }
}