{
  "contractName": "Betting",
  "abi": [
    {
      "constant": true,
      "inputs": [],
      "name": "name",
      "outputs": [
        {
          "name": "",
          "type": "string"
        }
      ],
      "payable": false,
      "stateMutability": "view",
      "type": "function"
    },
    {
      "constant": true,
      "inputs": [
        {
          "name": "",
          "type": "uint256"
        }
      ],
      "name": "games",
      "outputs": [
        {
          "name": "totalBetsHome",
          "type": "uint256"
        },
        {
          "name": "totalBetsAway",
          "type": "uint256"
        },
        {
          "name": "takenPlace",
          "type": "bool"
        }
      ],
      "payable": false,
      "stateMutability": "view",
      "type": "function"
    },
    {
      "constant": true,
      "inputs": [],
      "name": "numberOfBets",
      "outputs": [
        {
          "name": "",
          "type": "uint256"
        }
      ],
      "payable": false,
      "stateMutability": "view",
      "type": "function"
    },
    {
      "constant": true,
      "inputs": [],
      "name": "owner",
      "outputs": [
        {
          "name": "",
          "type": "address"
        }
      ],
      "payable": false,
      "stateMutability": "view",
      "type": "function"
    },
    {
      "constant": true,
      "inputs": [],
      "name": "minimumBet",
      "outputs": [
        {
          "name": "",
          "type": "uint256"
        }
      ],
      "payable": false,
      "stateMutability": "view",
      "type": "function"
    },
    {
      "constant": true,
      "inputs": [],
      "name": "maxAmountOfBets",
      "outputs": [
        {
          "name": "",
          "type": "uint256"
        }
      ],
      "payable": false,
      "stateMutability": "view",
      "type": "function"
    },
    {
      "inputs": [],
      "payable": false,
      "stateMutability": "nonpayable",
      "type": "constructor"
    },
    {
      "constant": false,
      "inputs": [
        {
          "name": "new_game_ids",
          "type": "uint256[]"
        }
      ],
      "name": "setGames",
      "outputs": [],
      "payable": false,
      "stateMutability": "nonpayable",
      "type": "function"
    },
    {
      "constant": true,
      "inputs": [
        {
          "name": "player",
          "type": "address"
        },
        {
          "name": "_gameID",
          "type": "uint256"
        }
      ],
      "name": "checkPlayerExists",
      "outputs": [
        {
          "name": "",
          "type": "bool"
        }
      ],
      "payable": false,
      "stateMutability": "view",
      "type": "function"
    },
    {
      "constant": false,
      "inputs": [
        {
          "name": "_teamSelected",
          "type": "uint8"
        },
        {
          "name": "_gameID",
          "type": "uint256"
        }
      ],
      "name": "bet",
      "outputs": [],
      "payable": true,
      "stateMutability": "payable",
      "type": "function"
    },
    {
      "constant": false,
      "inputs": [
        {
          "name": "teamWinner",
          "type": "uint16"
        },
        {
          "name": "_gameID",
          "type": "uint256"
        }
      ],
      "name": "distributePrizes",
      "outputs": [],
      "payable": false,
      "stateMutability": "nonpayable",
      "type": "function"
    },
    {
      "constant": true,
      "inputs": [
        {
          "name": "_gameID",
          "type": "uint256"
        }
      ],
      "name": "AmountHome",
      "outputs": [
        {
          "name": "",
          "type": "uint256"
        }
      ],
      "payable": false,
      "stateMutability": "view",
      "type": "function"
    },
    {
      "constant": true,
      "inputs": [
        {
          "name": "_gameID",
          "type": "uint256"
        }
      ],
      "name": "AmountAway",
      "outputs": [
        {
          "name": "",
          "type": "uint256"
        }
      ],
      "payable": false,
      "stateMutability": "view",
      "type": "function"
    }
  ],
  "bytecode": "0x6080604052606060405190810160405280602381526020017f5065657220746f2050656572204261736b657462616c6c2042657474696e672081526020017f4170700000000000000000000000000000000000000000000000000000000000815250600090805190602001906100769291906100dd565b506103e860045534801561008957600080fd5b50655af3107a400060028190555033600160006101000a81548173ffffffffffffffffffffffffffffffffffffffff021916908373ffffffffffffffffffffffffffffffffffffffff160217905550610182565b828054600181600116156101000203166002900490600052602060002090601f016020900481019282601f1061011e57805160ff191683800117855561014c565b8280016001018555821561014c579182015b8281111561014b578251825591602001919060010190610130565b5b509050610159919061015d565b5090565b61017f91905b8082111561017b576000816000905550600101610163565b5090565b90565b610d9a806101916000396000f3fe6080604052600436106100ba576000357c0100000000000000000000000000000000000000000000000000000000900463ffffffff16806306fdde03146100bf578063117a5b901461014f5780632ca8c6d3146101b05780637c695384146101db5780638363b00c146102165780638da5cb5b14610265578063a0caa093146102bc578063a1d5ada71461030b578063c38a8afd1461037e578063db533fd7146103a9578063e08a96cd1461046e578063e44ae4d414610499575b600080fd5b3480156100cb57600080fd5b506100d46104e2565b6040518080602001828103825283818151815260200191508051906020019080838360005b838110156101145780820151818401526020810190506100f9565b50505050905090810190601f1680156101415780820380516001836020036101000a031916815260200191505b509250505060405180910390f35b34801561015b57600080fd5b506101886004803603602081101561017257600080fd5b8101908080359060200190929190505050610580565b6040518084815260200183815260200182151515158152602001935050505060405180910390f35b3480156101bc57600080fd5b506101c56105b7565b6040518082815260200191505060405180910390f35b610214600480360360408110156101f157600080fd5b81019080803560ff169060200190929190803590602001909291905050506105bd565b005b34801561022257600080fd5b5061024f6004803603602081101561023957600080fd5b8101908080359060200190929190505050610775565b6040518082815260200191505060405180910390f35b34801561027157600080fd5b5061027a610795565b604051808273ffffffffffffffffffffffffffffffffffffffff1673ffffffffffffffffffffffffffffffffffffffff16815260200191505060405180910390f35b3480156102c857600080fd5b506102f5600480360360208110156102df57600080fd5b81019080803590602001909291905050506107bb565b6040518082815260200191505060405180910390f35b34801561031757600080fd5b506103646004803603604081101561032e57600080fd5b81019080803573ffffffffffffffffffffffffffffffffffffffff169060200190929190803590602001909291905050506107db565b604051808215151515815260200191505060405180910390f35b34801561038a57600080fd5b506103936108a8565b6040518082815260200191505060405180910390f35b3480156103b557600080fd5b5061046c600480360360208110156103cc57600080fd5b81019080803590602001906401000000008111156103e957600080fd5b8201836020820111156103fb57600080fd5b8035906020019184602083028401116401000000008311171561041d57600080fd5b919080806020026020016040519081016040528093929190818152602001838360200280828437600081840152601f19601f8201169050808301925050505050505091929192905050506108ae565b005b34801561047a57600080fd5b506104836108c8565b6040518082815260200191505060405180910390f35b3480156104a557600080fd5b506104e0600480360360408110156104bc57600080fd5b81019080803561ffff169060200190929190803590602001909291905050506108ce565b005b60008054600181600116156101000203166002900480601f0160208091040260200160405190810160405280929190818152602001828054600181600116156101000203166002900480156105785780601f1061054d57610100808354040283529160200191610578565b820191906000526020600020905b81548152906001019060200180831161055b57829003601f168201915b505050505081565b60056020528060005260406000206000915090508060000154908060010154908060020160009054906101000a900460ff16905083565b60035481565b6105c733826107db565b1515156105d357600080fd5b60025434101515156105e457600080fd5b346005600083815260200190815260200160002060030160003373ffffffffffffffffffffffffffffffffffffffff1673ffffffffffffffffffffffffffffffffffffffff168152602001908152602001600020600001819055508160ff166005600083815260200190815260200160002060030160003373ffffffffffffffffffffffffffffffffffffffff1673ffffffffffffffffffffffffffffffffffffffff16815260200190815260200160002060010181905550600560008281526020019081526020016000206004013390806001815401808255809150509060018203906000526020600020016000909192909190916101000a81548173ffffffffffffffffffffffffffffffffffffffff021916908373ffffffffffffffffffffffffffffffffffffffff1602179055505060018260ff16141561074c57346005600083815260200190815260200160002060000160008282540192505081905550610771565b3460056000838152602001908152602001600020600101600082825401925050819055505b5050565b600060056000838152602001908152602001600020600001549050919050565b600160009054906101000a900473ffffffffffffffffffffffffffffffffffffffff1681565b600060056000838152602001908152602001600020600101549050919050565b600080600090505b600560008481526020019081526020016000206004018054905081101561089c578373ffffffffffffffffffffffffffffffffffffffff16600560008581526020019081526020016000206004018281548110151561083e57fe5b9060005260206000200160009054906101000a900473ffffffffffffffffffffffffffffffffffffffff1673ffffffffffffffffffffffffffffffffffffffff16141561088f5760019150506108a2565b80806001019150506107e3565b50600090505b92915050565b60025481565b80600690805190602001906108c4929190610cd7565b5050565b60045481565b600160009054906101000a900473ffffffffffffffffffffffffffffffffffffffff1673ffffffffffffffffffffffffffffffffffffffff163373ffffffffffffffffffffffffffffffffffffffff16141515610993576040517f08c379a00000000000000000000000000000000000000000000000000000000081526004018080602001828103825260188152602001807f63616c6c6572206d75737420626520746865206f776e6572000000000000000081525060200191505060405180910390fd5b61099b610d24565b600080905060008090506000809050600080600090505b6005600088815260200190815260200160002060040180549050811015610ae557600060056000898152602001908152602001600020600401828154811015156109f857fe5b9060005260206000200160009054906101000a900473ffffffffffffffffffffffffffffffffffffffff1690508861ffff16600560008a815260200190815260200160002060030160008373ffffffffffffffffffffffffffffffffffffffff1673ffffffffffffffffffffffffffffffffffffffff168152602001908152602001600020600101541415610ad7578087876103e881101515610a9757fe5b602002019073ffffffffffffffffffffffffffffffffffffffff16908173ffffffffffffffffffffffffffffffffffffffff168152505085806001019650505b5080806001019150506109b2565b5060018761ffff161415610b2a576005600087815260200190815260200160002060010154925060056000878152602001908152602001600020600001549150610b5d565b60056000878152602001908152602001600020600001549250600560008781526020019081526020016000206001015491505b60008090505b84811015610c9e57600073ffffffffffffffffffffffffffffffffffffffff1686826103e881101515610b9257fe5b602002015173ffffffffffffffffffffffffffffffffffffffff16141515610c915785816103e881101515610bc357fe5b6020020151915060006005600089815260200190815260200160002060030160008473ffffffffffffffffffffffffffffffffffffffff1673ffffffffffffffffffffffffffffffffffffffff16815260200190815260200160002060000154905086826103e881101515610c3457fe5b602002015173ffffffffffffffffffffffffffffffffffffffff166108fc8587811515610c5d57fe5b0460010183029081150290604051600060405180830381858888f19350505050158015610c8e573d6000803e3d6000fd5b50505b8080600101915050610b63565b5060016005600088815260200190815260200160002060020160006101000a81548160ff02191690831515021790555050505050505050565b828054828255906000526020600020908101928215610d13579160200282015b82811115610d12578251825591602001919060010190610cf7565b5b509050610d209190610d49565b5090565b617d00604051908101604052806103e890602082028038833980820191505090505090565b610d6b91905b80821115610d67576000816000905550600101610d4f565b5090565b9056fea165627a7a7230582030418ef9d7514c9702f82cf87c4e125c0e05c3f7f4661cfb27b6fa86313762120029",
  "source": "// SPDX-License-Identifier: MIT\r\npragma solidity = 0.5.0;\r\n\r\ncontract Betting {\r\n    string public name = \"Peer to Peer Basketball Betting App\";\r\n    address public owner;\r\n    uint public minimumBet;\r\n    uint public numberOfBets;\r\n    uint public maxAmountOfBets = 1000;\r\n\r\n    struct Player {\r\n        // Amount bet by a player\r\n        uint amountBet;\r\n\r\n        // Team selected by the player (1 for home, 2 for away)\r\n        uint teamSelected;\r\n    }\r\n\r\n    struct Game {\r\n        // Total amount of bets placed on the home team\r\n        uint totalBetsHome;\r\n\r\n        // Total amount of bets placed on the away team\r\n        uint totalBetsAway;\r\n\r\n        // Has the game taken place yet?\r\n        bool takenPlace;\r\n\r\n        // Maps addresses to player information so that given an address, we can check how much money that player bet on a certain team\r\n        mapping(address => Player) playerInfo;\r\n\r\n        // List of payable addresses for the players\r\n        address payable[] players;\r\n    }\r\n\r\n    // Mapping of games\r\n    mapping(uint => Game) public games;\r\n    uint[] game_ids;\r\n\r\n    constructor() public {\r\n        // minimumBet is 1e14 wei corresponding to 0.0001 ether\r\n        minimumBet = 1e14;\r\n        owner = msg.sender;\r\n\r\n        // TODO: Populate the games mapping here\r\n    }\r\n\r\n    function setGames(uint[] memory new_game_ids) public {\r\n        game_ids = new_game_ids;\r\n    }\r\n\r\n    function checkPlayerExists(address player, uint _gameID) public view returns(bool) {\r\n        for (uint i = 0; i < games[_gameID].players.length; i++) {\r\n            if (games[_gameID].players[i] == player) {\r\n                return true;\r\n            }\r\n        }\r\n        return false;\r\n    }\r\n\r\n    function bet(uint8 _teamSelected, uint _gameID) public payable {\r\n        // Check that the player (person calling this contract) does not exist (meaning that person hasn't bet yet)\r\n        require(!checkPlayerExists(msg.sender, _gameID));\r\n\r\n        require(msg.value >= minimumBet);\r\n\r\n        games[_gameID].playerInfo[msg.sender].amountBet = msg.value;\r\n        games[_gameID].playerInfo[msg.sender].teamSelected = _teamSelected;\r\n\r\n        games[_gameID].players.push(msg.sender); // VERSIONING: need payable(msg.sender) for newer versions of solidity\r\n\r\n        // Bet on the home team, otherwise bet on the away team\r\n        if (_teamSelected == 1) {\r\n            games[_gameID].totalBetsHome += msg.value;\r\n        }\r\n        else {\r\n            games[_gameID].totalBetsAway += msg.value;\r\n        }\r\n\r\n    }\r\n\r\n    function distributePrizes(uint16 teamWinner, uint _gameID) public {\r\n        // Enforce only the deployer/owner of the contract can call this function\r\n        require(msg.sender == owner, \"caller must be the owner\");\r\n\r\n        // Create a temporary in memory array with fixed size of 1000 to store the winners, so there can be at most 1000 winners\r\n        address payable[1000] memory winners;\r\n        \r\n        uint count = 0; // This is the count for the number of winners\r\n        uint LoserBet = 0; // This will be the sum of all the losing bets\r\n        uint WinnerBet = 0; // This will be the sum of all the winning bets\r\n        address add;\r\n\r\n        // We loop through the player array to find the players that correctly bet on the winning team\r\n        for(uint i = 0; i < games[_gameID].players.length; i++) {\r\n            address payable playerAddress = games[_gameID].players[i];\r\n\r\n            // If the player bet on the winning team, we add that player's address to the winners array\r\n            if (games[_gameID].playerInfo[playerAddress].teamSelected == teamWinner) {\r\n                winners[count] = playerAddress;\r\n                count++;\r\n            } \r\n        }\r\n\r\n        // Define which bet sum is the winner and which is the loser\r\n        if (teamWinner == 1) {\r\n            LoserBet = games[_gameID].totalBetsAway;\r\n            WinnerBet = games[_gameID].totalBetsHome;\r\n        }\r\n        else {\r\n            LoserBet = games[_gameID].totalBetsHome;\r\n            WinnerBet = games[_gameID].totalBetsAway;\r\n        }        \r\n\r\n        // Loop through the array of winners and distribute eth (in units of wei) to each of them\r\n        for(uint j = 0; j < count; j++) {\r\n            // Check that we actually have a proper, valid address in this slot of the array\r\n            if (winners[j] != address(0)) {\r\n                add = winners[j];\r\n                uint bet_amount = games[_gameID].playerInfo[add].amountBet;\r\n                // Distribute wei to the user based on the formula (pro rata distribution to the winners based on how much money they individually bet)\r\n                winners[j].transfer(bet_amount*(1 + LoserBet/WinnerBet));\r\n            }\r\n        }\r\n\r\n        // Update game to have taken place\r\n        games[_gameID].takenPlace = true;\r\n\r\n        // delete playerInfo[playerAddress]; // Delete all the players\r\n        // players.length = 0; // Delete all the players array\r\n        // LoserBet = 0; // Reinitialize the bets\r\n        // WinnerBet = 0; // Reset these values\r\n        // totalBetsOne = 0; // Reset these values\r\n        // totalBetsTwo = 0; // Reset these values\r\n    }\r\n\r\n    function AmountHome(uint _gameID) public view returns(uint) {\r\n        return games[_gameID].totalBetsHome;\r\n    }\r\n\r\n    function AmountAway(uint _gameID) public view returns(uint) {\r\n        return games[_gameID].totalBetsAway;\r\n    }\r\n}",
  "sourcePath": "C:/Users/alber/Google Drive (albert_zhang@college.harvard.edu)/XPS2V2/OneDrive - Harvard University/Era-College v2/Blockchain, Crypto/peer-sports-betting/contracts/Betting.sol",
  "compiler": {
    "name": "solc",
    "version": "0.5.0+commit.1d4f565a.Emscripten.clang"
  },
  "schemaVersion": "3.2.3",
  "updatedAt": "2022-01-07T04:11:23.199Z",
  "devdoc": {
    "methods": {}
  },
  "userdoc": {
    "methods": {}
  }
}