{
  "contractName": "Betting",
  "abi": [
    {
      "constant": true,
      "inputs": [],
      "name": "name",
      "outputs": [
        {
          "name": "",
          "type": "string"
        }
      ],
      "payable": false,
      "stateMutability": "view",
      "type": "function"
    },
    {
      "constant": true,
      "inputs": [
        {
          "name": "",
          "type": "uint256"
        }
      ],
      "name": "games",
      "outputs": [
        {
          "name": "totalBetsHome",
          "type": "uint256"
        },
        {
          "name": "totalBetsAway",
          "type": "uint256"
        },
        {
          "name": "takenPlace",
          "type": "bool"
        }
      ],
      "payable": false,
      "stateMutability": "view",
      "type": "function"
    },
    {
      "constant": true,
      "inputs": [],
      "name": "numberOfBets",
      "outputs": [
        {
          "name": "",
          "type": "uint256"
        }
      ],
      "payable": false,
      "stateMutability": "view",
      "type": "function"
    },
    {
      "constant": true,
      "inputs": [],
      "name": "owner",
      "outputs": [
        {
          "name": "",
          "type": "address"
        }
      ],
      "payable": false,
      "stateMutability": "view",
      "type": "function"
    },
    {
      "constant": true,
      "inputs": [],
      "name": "minimumBet",
      "outputs": [
        {
          "name": "",
          "type": "uint256"
        }
      ],
      "payable": false,
      "stateMutability": "view",
      "type": "function"
    },
    {
      "constant": true,
      "inputs": [],
      "name": "maxAmountOfBets",
      "outputs": [
        {
          "name": "",
          "type": "uint256"
        }
      ],
      "payable": false,
      "stateMutability": "view",
      "type": "function"
    },
    {
      "inputs": [],
      "payable": false,
      "stateMutability": "nonpayable",
      "type": "constructor"
    },
    {
      "constant": true,
      "inputs": [
        {
          "name": "player",
          "type": "address"
        },
        {
          "name": "_gameID",
          "type": "uint256"
        }
      ],
      "name": "checkPlayerExists",
      "outputs": [
        {
          "name": "",
          "type": "bool"
        }
      ],
      "payable": false,
      "stateMutability": "view",
      "type": "function"
    },
    {
      "constant": false,
      "inputs": [
        {
          "name": "_teamSelected",
          "type": "uint8"
        },
        {
          "name": "_gameID",
          "type": "uint256"
        }
      ],
      "name": "bet",
      "outputs": [],
      "payable": true,
      "stateMutability": "payable",
      "type": "function"
    },
    {
      "constant": false,
      "inputs": [
        {
          "name": "teamWinner",
          "type": "uint16"
        },
        {
          "name": "_gameID",
          "type": "uint256"
        }
      ],
      "name": "distributePrizes",
      "outputs": [],
      "payable": false,
      "stateMutability": "nonpayable",
      "type": "function"
    },
    {
      "constant": true,
      "inputs": [
        {
          "name": "_gameID",
          "type": "uint256"
        }
      ],
      "name": "AmountHome",
      "outputs": [
        {
          "name": "",
          "type": "uint256"
        }
      ],
      "payable": false,
      "stateMutability": "view",
      "type": "function"
    },
    {
      "constant": true,
      "inputs": [
        {
          "name": "_gameID",
          "type": "uint256"
        }
      ],
      "name": "AmountAway",
      "outputs": [
        {
          "name": "",
          "type": "uint256"
        }
      ],
      "payable": false,
      "stateMutability": "view",
      "type": "function"
    }
  ],
  "bytecode": "0x6080604052606060405190810160405280602381526020017f5065657220746f2050656572204261736b657462616c6c2042657474696e672081526020017f4170700000000000000000000000000000000000000000000000000000000000815250600090805190602001906100769291906100dd565b506103e860045534801561008957600080fd5b50655af3107a400060028190555033600160006101000a81548173ffffffffffffffffffffffffffffffffffffffff021916908373ffffffffffffffffffffffffffffffffffffffff160217905550610182565b828054600181600116156101000203166002900490600052602060002090601f016020900481019282601f1061011e57805160ff191683800117855561014c565b8280016001018555821561014c579182015b8281111561014b578251825591602001919060010190610130565b5b509050610159919061015d565b5090565b61017f91905b8082111561017b576000816000905550600101610163565b5090565b90565b610b79806101916000396000f3fe6080604052600436106100af576000357c0100000000000000000000000000000000000000000000000000000000900463ffffffff16806306fdde03146100b4578063117a5b90146101445780632ca8c6d3146101a55780637c695384146101d05780638363b00c1461020b5780638da5cb5b1461025a578063a0caa093146102b1578063a1d5ada714610300578063c38a8afd14610373578063e08a96cd1461039e578063e44ae4d4146103c9575b600080fd5b3480156100c057600080fd5b506100c9610412565b6040518080602001828103825283818151815260200191508051906020019080838360005b838110156101095780820151818401526020810190506100ee565b50505050905090810190601f1680156101365780820380516001836020036101000a031916815260200191505b509250505060405180910390f35b34801561015057600080fd5b5061017d6004803603602081101561016757600080fd5b81019080803590602001909291905050506104b0565b6040518084815260200183815260200182151515158152602001935050505060405180910390f35b3480156101b157600080fd5b506101ba6104e7565b6040518082815260200191505060405180910390f35b610209600480360360408110156101e657600080fd5b81019080803560ff169060200190929190803590602001909291905050506104ed565b005b34801561021757600080fd5b506102446004803603602081101561022e57600080fd5b81019080803590602001909291905050506106a5565b6040518082815260200191505060405180910390f35b34801561026657600080fd5b5061026f6106c5565b604051808273ffffffffffffffffffffffffffffffffffffffff1673ffffffffffffffffffffffffffffffffffffffff16815260200191505060405180910390f35b3480156102bd57600080fd5b506102ea600480360360208110156102d457600080fd5b81019080803590602001909291905050506106eb565b6040518082815260200191505060405180910390f35b34801561030c57600080fd5b506103596004803603604081101561032357600080fd5b81019080803573ffffffffffffffffffffffffffffffffffffffff1690602001909291908035906020019092919050505061070b565b604051808215151515815260200191505060405180910390f35b34801561037f57600080fd5b506103886107d8565b6040518082815260200191505060405180910390f35b3480156103aa57600080fd5b506103b36107de565b6040518082815260200191505060405180910390f35b3480156103d557600080fd5b50610410600480360360408110156103ec57600080fd5b81019080803561ffff169060200190929190803590602001909291905050506107e4565b005b60008054600181600116156101000203166002900480601f0160208091040260200160405190810160405280929190818152602001828054600181600116156101000203166002900480156104a85780601f1061047d576101008083540402835291602001916104a8565b820191906000526020600020905b81548152906001019060200180831161048b57829003601f168201915b505050505081565b60056020528060005260406000206000915090508060000154908060010154908060020160009054906101000a900460ff16905083565b60035481565b6104f7338261070b565b15151561050357600080fd5b600254341015151561051457600080fd5b346005600083815260200190815260200160002060030160003373ffffffffffffffffffffffffffffffffffffffff1673ffffffffffffffffffffffffffffffffffffffff168152602001908152602001600020600001819055508160ff166005600083815260200190815260200160002060030160003373ffffffffffffffffffffffffffffffffffffffff1673ffffffffffffffffffffffffffffffffffffffff16815260200190815260200160002060010181905550600560008281526020019081526020016000206004013390806001815401808255809150509060018203906000526020600020016000909192909190916101000a81548173ffffffffffffffffffffffffffffffffffffffff021916908373ffffffffffffffffffffffffffffffffffffffff1602179055505060018260ff16141561067c573460056000838152602001908152602001600020600001600082825401925050819055506106a1565b3460056000838152602001908152602001600020600101600082825401925050819055505b5050565b600060056000838152602001908152602001600020600001549050919050565b600160009054906101000a900473ffffffffffffffffffffffffffffffffffffffff1681565b600060056000838152602001908152602001600020600101549050919050565b600080600090505b60056000848152602001908152602001600020600401805490508110156107cc578373ffffffffffffffffffffffffffffffffffffffff16600560008581526020019081526020016000206004018281548110151561076e57fe5b9060005260206000200160009054906101000a900473ffffffffffffffffffffffffffffffffffffffff1673ffffffffffffffffffffffffffffffffffffffff1614156107bf5760019150506107d2565b8080600101915050610713565b50600090505b92915050565b60025481565b60045481565b6107ec610b28565b600080905060008090506000809050600080600090505b6005600088815260200190815260200160002060040180549050811015610936576000600560008981526020019081526020016000206004018281548110151561084957fe5b9060005260206000200160009054906101000a900473ffffffffffffffffffffffffffffffffffffffff1690508861ffff16600560008a815260200190815260200160002060030160008373ffffffffffffffffffffffffffffffffffffffff1673ffffffffffffffffffffffffffffffffffffffff168152602001908152602001600020600101541415610928578087876103e8811015156108e857fe5b602002019073ffffffffffffffffffffffffffffffffffffffff16908173ffffffffffffffffffffffffffffffffffffffff168152505085806001019650505b508080600101915050610803565b5060018761ffff16141561097b5760056000878152602001908152602001600020600101549250600560008781526020019081526020016000206000015491506109ae565b60056000878152602001908152602001600020600001549250600560008781526020019081526020016000206001015491505b60008090505b84811015610aef57600073ffffffffffffffffffffffffffffffffffffffff1686826103e8811015156109e357fe5b602002015173ffffffffffffffffffffffffffffffffffffffff16141515610ae25785816103e881101515610a1457fe5b6020020151915060006005600089815260200190815260200160002060030160008473ffffffffffffffffffffffffffffffffffffffff1673ffffffffffffffffffffffffffffffffffffffff16815260200190815260200160002060000154905086826103e881101515610a8557fe5b602002015173ffffffffffffffffffffffffffffffffffffffff166108fc8587811515610aae57fe5b0460010183029081150290604051600060405180830381858888f19350505050158015610adf573d6000803e3d6000fd5b50505b80806001019150506109b4565b5060016005600088815260200190815260200160002060020160006101000a81548160ff02191690831515021790555050505050505050565b617d00604051908101604052806103e89060208202803883398082019150509050509056fea165627a7a7230582011361acbb9e4d700d15ce08f46e29a68052679a0d911f9548968fd800d616c630029",
  "source": "// SPDX-License-Identifier: MIT\r\npragma solidity = 0.5.0;\r\n\r\ncontract Betting {\r\n    string public name = \"Peer to Peer Basketball Betting App\";\r\n    address public owner;\r\n    uint public minimumBet;\r\n    uint public numberOfBets;\r\n    uint public maxAmountOfBets = 1000;\r\n\r\n    struct Player {\r\n        // Amount bet by a player\r\n        uint amountBet;\r\n\r\n        // Team selected by the player (1 for home, 2 for away)\r\n        uint teamSelected;\r\n    }\r\n\r\n    struct Game {\r\n        // Total amount of bets placed on the home team\r\n        uint totalBetsHome;\r\n\r\n        // Total amount of bets placed on the away team\r\n        uint totalBetsAway;\r\n\r\n        // Has the game taken place yet?\r\n        bool takenPlace;\r\n\r\n        // Maps addresses to player information so that given an address, we can check how much money that player bet on a certain team\r\n        mapping(address => Player) playerInfo;\r\n\r\n        // List of payable addresses for the players\r\n        address payable[] players;\r\n    }\r\n\r\n    // Mapping of games\r\n    mapping(uint => Game) public games;\r\n\r\n    constructor() public {\r\n        // minimumBet is 1e14 wei corresponding to 0.0001 ether\r\n        minimumBet = 1e14;\r\n        owner = msg.sender;\r\n\r\n        // TODO: Populate the games mapping here\r\n    }\r\n\r\n    function checkPlayerExists(address player, uint _gameID) public view returns(bool) {\r\n        for (uint i = 0; i < games[_gameID].players.length; i++) {\r\n            if (games[_gameID].players[i] == player) {\r\n                return true;\r\n            }\r\n        }\r\n        return false;\r\n    }\r\n\r\n    function bet(uint8 _teamSelected, uint _gameID) public payable {\r\n        // Check that the player (person calling this contract) does not exist (meaning that person hasn't bet yet)\r\n        require(!checkPlayerExists(msg.sender, _gameID));\r\n\r\n        require(msg.value >= minimumBet);\r\n\r\n        games[_gameID].playerInfo[msg.sender].amountBet = msg.value;\r\n        games[_gameID].playerInfo[msg.sender].teamSelected = _teamSelected;\r\n\r\n        games[_gameID].players.push(msg.sender); // VERSIONING: need payable(msg.sender) for newer versions of solidity\r\n\r\n        // Bet on the home team, otherwise bet on the away team\r\n        if (_teamSelected == 1) {\r\n            games[_gameID].totalBetsHome += msg.value;\r\n        }\r\n        else {\r\n            games[_gameID].totalBetsAway += msg.value;\r\n        }\r\n\r\n    }\r\n\r\n    function distributePrizes(uint16 teamWinner, uint _gameID) public {\r\n        // TODO: Enforce only the deployer/owner of the contract can call this function\r\n\r\n        // Create a temporary in memory array with fixed size of 1000 to store the winners, so there can be at most 1000 winners\r\n        address payable[1000] memory winners;\r\n        \r\n        uint count = 0; // This is the count for the number of winners\r\n        uint LoserBet = 0; // This will be the sum of all the losing bets\r\n        uint WinnerBet = 0; // This will be the sum of all the winning bets\r\n        address add;\r\n\r\n        // We loop through the player array to find the players that correctly bet on the winning team\r\n        for(uint i = 0; i < games[_gameID].players.length; i++) {\r\n            address payable playerAddress = games[_gameID].players[i];\r\n\r\n            // If the player bet on the winning team, we add that player's address to the winners array\r\n            if (games[_gameID].playerInfo[playerAddress].teamSelected == teamWinner) {\r\n                winners[count] = playerAddress;\r\n                count++;\r\n            } \r\n        }\r\n\r\n        // Define which bet sum is the winner and which is the loser\r\n        if (teamWinner == 1) {\r\n            LoserBet = games[_gameID].totalBetsAway;\r\n            WinnerBet = games[_gameID].totalBetsHome;\r\n        }\r\n        else {\r\n            LoserBet = games[_gameID].totalBetsHome;\r\n            WinnerBet = games[_gameID].totalBetsAway;\r\n        }        \r\n\r\n        // Loop through the array of winners and distribute eth (in units of wei) to each of them\r\n        for(uint j = 0; j < count; j++) {\r\n            // Check that we actually have a proper, valid address in this slot of the array\r\n            if (winners[j] != address(0)) {\r\n                add = winners[j];\r\n                uint bet_amount = games[_gameID].playerInfo[add].amountBet;\r\n                // Distribute wei to the user based on the formula (pro rata distribution to the winners based on how much money they individually bet)\r\n                winners[j].transfer(bet_amount*(1 + LoserBet/WinnerBet));\r\n            }\r\n        }\r\n\r\n        // Update game to have taken place\r\n        games[_gameID].takenPlace = true;\r\n\r\n        // delete playerInfo[playerAddress]; // Delete all the players\r\n        // players.length = 0; // Delete all the players array\r\n        // LoserBet = 0; // Reinitialize the bets\r\n        // WinnerBet = 0; // Reset these values\r\n        // totalBetsOne = 0; // Reset these values\r\n        // totalBetsTwo = 0; // Reset these values\r\n    }\r\n\r\n    function AmountHome(uint _gameID) public view returns(uint) {\r\n        return games[_gameID].totalBetsHome;\r\n    }\r\n\r\n    function AmountAway(uint _gameID) public view returns(uint) {\r\n        return games[_gameID].totalBetsAway;\r\n    }\r\n}",
  "sourcePath": "/mnt/c/Users/Jeremy Zhang/Documents/peer-sports-betting/contracts/Betting.sol",
  "compiler": {
    "name": "solc",
    "version": "0.5.0+commit.1d4f565a.Emscripten.clang"
  },
  "schemaVersion": "3.4.4",
  "updatedAt": "2022-01-06T15:42:01.410Z",
  "devdoc": {
    "methods": {}
  },
  "userdoc": {
    "methods": {}
  }
}