{
  "contractName": "Betting",
  "abi": [
    {
      "constant": true,
      "inputs": [],
      "name": "numberOfBets",
      "outputs": [
        {
          "name": "",
          "type": "uint256"
        }
      ],
      "payable": false,
      "stateMutability": "view",
      "type": "function"
    },
    {
      "constant": true,
      "inputs": [
        {
          "name": "",
          "type": "address"
        }
      ],
      "name": "playerInfo",
      "outputs": [
        {
          "name": "amountBet",
          "type": "uint256"
        },
        {
          "name": "teamSelected",
          "type": "uint16"
        }
      ],
      "payable": false,
      "stateMutability": "view",
      "type": "function"
    },
    {
      "constant": true,
      "inputs": [],
      "name": "totalBetsTwo",
      "outputs": [
        {
          "name": "",
          "type": "uint256"
        }
      ],
      "payable": false,
      "stateMutability": "view",
      "type": "function"
    },
    {
      "constant": true,
      "inputs": [],
      "name": "totalBetsOne",
      "outputs": [
        {
          "name": "",
          "type": "uint256"
        }
      ],
      "payable": false,
      "stateMutability": "view",
      "type": "function"
    },
    {
      "constant": true,
      "inputs": [],
      "name": "minimumBet",
      "outputs": [
        {
          "name": "",
          "type": "uint256"
        }
      ],
      "payable": false,
      "stateMutability": "view",
      "type": "function"
    },
    {
      "constant": true,
      "inputs": [],
      "name": "maxAmountOfBets",
      "outputs": [
        {
          "name": "",
          "type": "uint256"
        }
      ],
      "payable": false,
      "stateMutability": "view",
      "type": "function"
    },
    {
      "constant": true,
      "inputs": [
        {
          "name": "",
          "type": "uint256"
        }
      ],
      "name": "players",
      "outputs": [
        {
          "name": "",
          "type": "address"
        }
      ],
      "payable": false,
      "stateMutability": "view",
      "type": "function"
    },
    {
      "inputs": [],
      "payable": false,
      "stateMutability": "nonpayable",
      "type": "constructor"
    },
    {
      "constant": true,
      "inputs": [
        {
          "name": "player",
          "type": "address"
        }
      ],
      "name": "checkPlayerExists",
      "outputs": [
        {
          "name": "",
          "type": "bool"
        }
      ],
      "payable": false,
      "stateMutability": "view",
      "type": "function"
    },
    {
      "constant": false,
      "inputs": [
        {
          "name": "_teamSelected",
          "type": "uint8"
        },
        {
          "name": "_amount",
          "type": "uint256"
        }
      ],
      "name": "bet",
      "outputs": [],
      "payable": true,
      "stateMutability": "payable",
      "type": "function"
    },
    {
      "constant": false,
      "inputs": [
        {
          "name": "teamWinner",
          "type": "uint16"
        }
      ],
      "name": "distributePrizes",
      "outputs": [],
      "payable": false,
      "stateMutability": "nonpayable",
      "type": "function"
    },
    {
      "constant": true,
      "inputs": [],
      "name": "AmountOne",
      "outputs": [
        {
          "name": "",
          "type": "uint256"
        }
      ],
      "payable": false,
      "stateMutability": "view",
      "type": "function"
    },
    {
      "constant": true,
      "inputs": [],
      "name": "AmountTwo",
      "outputs": [
        {
          "name": "",
          "type": "uint256"
        }
      ],
      "payable": false,
      "stateMutability": "view",
      "type": "function"
    }
  ],
  "bytecode": "0x60806040526103e860045534801561001657600080fd5b50655af3107a40006000819055506109bd806100336000396000f3fe6080604052600436106100ba576000357c0100000000000000000000000000000000000000000000000000000000900463ffffffff1680632ca8c6d3146100bf5780634081d916146100ea5780634996d51d146101535780634b1146911461017e5780635bf6b19f146101f2578063657335921461021d5780637904f688146102485780637c695384146102875780638afadeb5146102c2578063c38a8afd146102ed578063e08a96cd14610318578063f71d96cb14610343575b600080fd5b3480156100cb57600080fd5b506100d46103be565b6040518082815260200191505060405180910390f35b3480156100f657600080fd5b506101396004803603602081101561010d57600080fd5b81019080803573ffffffffffffffffffffffffffffffffffffffff1690602001909291905050506103c4565b604051808215151515815260200191505060405180910390f35b34801561015f57600080fd5b50610168610468565b6040518082815260200191505060405180910390f35b34801561018a57600080fd5b506101cd600480360360208110156101a157600080fd5b81019080803573ffffffffffffffffffffffffffffffffffffffff169060200190929190505050610472565b604051808381526020018261ffff1661ffff1681526020019250505060405180910390f35b3480156101fe57600080fd5b506102076104a4565b6040518082815260200191505060405180910390f35b34801561022957600080fd5b506102326104aa565b6040518082815260200191505060405180910390f35b34801561025457600080fd5b506102856004803603602081101561026b57600080fd5b81019080803561ffff1690602001909291905050506104b4565b005b6102c06004803603604081101561029d57600080fd5b81019080803560ff16906020019092919080359060200190929190505050610762565b005b3480156102ce57600080fd5b506102d76108cb565b6040518082815260200191505060405180910390f35b3480156102f957600080fd5b506103026108d1565b6040518082815260200191505060405180910390f35b34801561032457600080fd5b5061032d6108d7565b6040518082815260200191505060405180910390f35b34801561034f57600080fd5b5061037c6004803603602081101561036657600080fd5b81019080803590602001909291905050506108dd565b604051808273ffffffffffffffffffffffffffffffffffffffff1673ffffffffffffffffffffffffffffffffffffffff16815260200191505060405180910390f35b60035481565b600080600090505b60058054905081101561045d578273ffffffffffffffffffffffffffffffffffffffff166005828154811015156103ff57fe5b9060005260206000200160009054906101000a900473ffffffffffffffffffffffffffffffffffffffff1673ffffffffffffffffffffffffffffffffffffffff161415610450576001915050610463565b80806001019150506103cc565b50600090505b919050565b6000600154905090565b60066020528060005260406000206000915090508060000154908060010160009054906101000a900461ffff16905082565b60025481565b6000600254905090565b6104bc61091b565b600080905060008090506000809050600080600090505b6005805490508110156105dc5760006005828154811015156104f157fe5b9060005260206000200160009054906101000a900473ffffffffffffffffffffffffffffffffffffffff1690508761ffff16600660008373ffffffffffffffffffffffffffffffffffffffff1673ffffffffffffffffffffffffffffffffffffffff16815260200190815260200160002060010160009054906101000a900461ffff1661ffff1614156105ce578087876103e88110151561058e57fe5b602002019073ffffffffffffffffffffffffffffffffffffffff16908173ffffffffffffffffffffffffffffffffffffffff168152505085806001019650505b5080806001019150506104d3565b5060018661ffff1614156105f95760025492506001549150610604565b600154925060025491505b60008090505b8481101561073157600073ffffffffffffffffffffffffffffffffffffffff1686826103e88110151561063957fe5b602002015173ffffffffffffffffffffffffffffffffffffffff161415156107245785816103e88110151561066a57fe5b602002015191506000600660008473ffffffffffffffffffffffffffffffffffffffff1673ffffffffffffffffffffffffffffffffffffffff16815260200190815260200160002060000154905086826103e8811015156106c757fe5b602002015173ffffffffffffffffffffffffffffffffffffffff166108fc85878115156106f057fe5b0460010183029081150290604051600060405180830381858888f19350505050158015610721573d6000803e3d6000fd5b50505b808060010191505061060a565b5060006005816107419190610940565b50600092506000915060006001819055506000600281905550505050505050565b61076b336103c4565b15151561077757600080fd5b600054341015151561078857600080fd5b34600660003373ffffffffffffffffffffffffffffffffffffffff1673ffffffffffffffffffffffffffffffffffffffff168152602001908152602001600020600001819055508160ff16600660003373ffffffffffffffffffffffffffffffffffffffff1673ffffffffffffffffffffffffffffffffffffffff16815260200190815260200160002060010160006101000a81548161ffff021916908361ffff16021790555060053390806001815401808255809150509060018203906000526020600020016000909192909190916101000a81548173ffffffffffffffffffffffffffffffffffffffff021916908373ffffffffffffffffffffffffffffffffffffffff1602179055505060018260ff1614156108b657346001600082825401925050819055506108c7565b346002600082825401925050819055505b5050565b60015481565b60005481565b60045481565b6005818154811015156108ec57fe5b906000526020600020016000915054906101000a900473ffffffffffffffffffffffffffffffffffffffff1681565b617d00604051908101604052806103e890602082028038833980820191505090505090565b81548183558181111561096757818360005260206000209182019101610966919061096c565b5b505050565b61098e91905b8082111561098a576000816000905550600101610972565b5090565b9056fea165627a7a723058201a37a503f493d498c5f16ed686022428fa5e5154b091c6000cc820f6d8fbde540029",
  "source": "// SPDX-License-Identifier: MIT\r\npragma solidity = 0.5.0;\r\n\r\ncontract Betting {\r\n    uint public minimumBet;\r\n    uint public totalBetsOne;\r\n    uint public totalBetsTwo;\r\n    uint public numberOfBets;\r\n    uint public maxAmountOfBets = 1000;\r\n\r\n    // List of payable addresses for the players\r\n    address payable[] public players;\r\n\r\n    struct Player {\r\n        uint amountBet;\r\n        // Assume that the only two teams are team 1 and team 2\r\n        uint16 teamSelected;\r\n    }\r\n\r\n    // Maps addresses to player information so that given an address, we can check how much money that player bet on a certain team\r\n    mapping(address => Player) public playerInfo;\r\n\r\n    constructor() public {\r\n        // minimumBet is 1e14 wei corresponding to 0.0001 ether\r\n        minimumBet = 1e14;\r\n    }\r\n\r\n    function checkPlayerExists(address player) public view returns(bool) {\r\n        for (uint i = 0; i < players.length; i++) {\r\n            if (players[i] == player) {\r\n                return true;\r\n            }\r\n        }\r\n        return false;\r\n    }\r\n\r\n    function bet(uint8 _teamSelected, uint _amount) public payable {\r\n        // Check that the player (person calling this contract) does not exist (meaning that person hasn't bet yet)\r\n        require(!checkPlayerExists(msg.sender));\r\n\r\n        require(msg.value >= minimumBet);\r\n        // require(msg.value == _amount);\r\n\r\n        playerInfo[msg.sender].amountBet = msg.value;\r\n        playerInfo[msg.sender].teamSelected = _teamSelected;\r\n\r\n        players.push(msg.sender); // VERSIONING: need payable(msg.sender) for newer versions of solidity\r\n\r\n        // Assume that the only two teams are team 1 and team 2\r\n        if (_teamSelected == 1) {\r\n            totalBetsOne += msg.value;\r\n        }\r\n        else {\r\n            totalBetsTwo += msg.value;\r\n        }\r\n\r\n    }\r\n\r\n    function distributePrizes(uint16 teamWinner) public {\r\n        // Create a temporary in memory array with fixed size of 1000 to store the winners, so there can be at most 1000 winners\r\n        // TODO: We could try to use a dynamic array that doesn't have a limit for the number of winners, but I suspect that we're suppose to set a limit, like 1000, because of how the blockchain is immutable, so we want to use an array of fixed size. Not certain about this though.\r\n        address payable[1000] memory winners;\r\n        \r\n        uint count = 0; // This is the count for the number of winners\r\n        uint LoserBet = 0; // This will be the sum of all the losing bets\r\n        uint WinnerBet = 0; // This will be the sum of all the winning bets\r\n        address add;\r\n\r\n        // We loop through the player array to find the players that correctly bet on the winning team\r\n        for(uint i = 0; i < players.length; i++) {\r\n            address payable playerAddress = players[i];\r\n\r\n            // If the player bet on the winning team, we add that player's address to the winners array\r\n            if (playerInfo[playerAddress].teamSelected == teamWinner) {\r\n                winners[count] = playerAddress;\r\n                count++;\r\n            } \r\n        }\r\n\r\n        // Define which bet sum is the winner and which is the loser\r\n        if (teamWinner == 1) {\r\n            LoserBet = totalBetsTwo;\r\n            WinnerBet = totalBetsOne;\r\n        }\r\n        else {\r\n            LoserBet = totalBetsOne;\r\n            WinnerBet = totalBetsTwo;\r\n        }        \r\n\r\n        // Loop through the array of winners and distribute eth (in units of wei) to each of them\r\n        for(uint j = 0; j < count; j++) {\r\n            // Check that we actually have a proper, valid address in this slot of the array\r\n            if (winners[j] != address(0)) {\r\n                add = winners[j];\r\n                uint bet_amount = playerInfo[add].amountBet;\r\n                // Distribute wei to the user based on the formula (pro rata distribution to the winners based on how much money they individually bet)\r\n                winners[j].transfer(bet_amount*(1 + LoserBet/WinnerBet));\r\n            }\r\n        }\r\n\r\n        // delete playerInfo[playerAddress]; // Delete all the players\r\n        players.length = 0; // Delete all the players array\r\n        LoserBet = 0; // Reinitialize the bets\r\n        WinnerBet = 0; // Reset these values\r\n        totalBetsOne = 0; // Reset these values\r\n        totalBetsTwo = 0; // Reset these values\r\n    }\r\n\r\n    function AmountOne() public view returns(uint) {\r\n        return totalBetsOne;\r\n    }\r\n\r\n    function AmountTwo() public view returns(uint) {\r\n        return totalBetsTwo;\r\n    }\r\n}",
  "sourcePath": "/mnt/c/Users/Jeremy Zhang/Documents/peer-sports-betting/contracts/Betting.sol",
  "compiler": {
    "name": "solc",
    "version": "0.5.0+commit.1d4f565a.Emscripten.clang"
  },
  "schemaVersion": "3.4.4",
  "updatedAt": "2021-12-29T22:59:56.285Z",
  "networkType": "ethereum",
  "devdoc": {
    "methods": {}
  },
  "userdoc": {
    "methods": {}
  }
}